{
  "contractName": "ETHUSDHandler",
  "abi": [
    {
      "constant": false,
      "inputs": [
        {
          "name": "_cid",
          "type": "string"
        },
        {
          "name": "_oracle",
          "type": "address"
        },
        {
          "name": "_buyer",
          "type": "address"
        },
        {
          "name": "_beneficiaries",
          "type": "address[]"
        },
        {
          "name": "_amounts",
          "type": "uint256[]"
        },
        {
          "name": "_notifiers",
          "type": "address[]"
        }
      ],
      "name": "pay",
      "outputs": [],
      "payable": true,
      "stateMutability": "payable",
      "type": "function"
    },
    {
      "anonymous": false,
      "inputs": [
        {
          "indexed": false,
          "name": "cid",
          "type": "string"
        },
        {
          "indexed": false,
          "name": "oracle",
          "type": "address"
        },
        {
          "indexed": false,
          "name": "ethUSD",
          "type": "uint256"
        },
        {
          "indexed": false,
          "name": "value",
          "type": "uint256"
        },
        {
          "indexed": false,
          "name": "issuer",
          "type": "address"
        },
        {
          "indexed": false,
          "name": "buyer",
          "type": "address"
        },
        {
          "indexed": false,
          "name": "beneficiaries",
          "type": "address[]"
        },
        {
          "indexed": false,
          "name": "amounts",
          "type": "uint256[]"
        }
      ],
      "name": "LogPayment",
      "type": "event"
    }
  ],
  "bytecode": "0x6060604052341561000f57600080fd5b6107648061001e6000396000f300606060405260043610610041576000357c0100000000000000000000000000000000000000000000000000000000900463ffffffff1680636f49b98b14610046575b600080fd5b610194600480803590602001908201803590602001908080601f0160208091040260200160405190810160405280939291908181526020018383808284378201915050505050509190803573ffffffffffffffffffffffffffffffffffffffff1690602001909190803573ffffffffffffffffffffffffffffffffffffffff16906020019091908035906020019082018035906020019080806020026020016040519081016040528093929190818152602001838360200280828437820191505050505050919080359060200190820180359060200190808060200260200160405190810160405280939291908181526020018383602002808284378201915050505050509190803590602001908201803590602001908080602002602001604051908101604052809392919081815260200183836020028082843782019150505050505091905050610196565b005b600080600080855187511415156101ac57600080fd5b60003414156101da57600087511415156101c557600080fd5b600086511415156101d557600080fd5b6102a5565b600092505b855183101561020f5785838151811015156101f657fe5b90602001906020020151840193506001830192506101df565b348414151561021d57600080fd5b600092505b86518310156102a457868381518110151561023957fe5b9060200190602002015173ffffffffffffffffffffffffffffffffffffffff166108fc878581518110151561026a57fe5b906020019060200201519081150290604051600060405180830381858888f19350505050151561029957600080fd5b600183019250610222565b5b8891508173ffffffffffffffffffffffffffffffffffffffff166358836e9f6000604051602001526040518163ffffffff167c0100000000000000000000000000000000000000000000000000000000028152600401602060405180830381600087803b151561031457600080fd5b6102c65a03f1151561032557600080fd5b5050506040518051905090506000811415151561034157600080fd5b600092505b845183101561055257848381518110151561035d57fe5b9060200190602002015173ffffffffffffffffffffffffffffffffffffffff16637dab14eb8b8b8b8b8b6040518663ffffffff167c010000000000000000000000000000000000000000000000000000000002815260040180806020018673ffffffffffffffffffffffffffffffffffffffff1673ffffffffffffffffffffffffffffffffffffffff1681526020018573ffffffffffffffffffffffffffffffffffffffff1673ffffffffffffffffffffffffffffffffffffffff1681526020018060200180602001848103845289818151815260200191508051906020019080838360005b8381101561045e578082015181840152602081019050610443565b50505050905090810190601f16801561048b5780820380516001836020036101000a031916815260200191505b50848103835286818151815260200191508051906020019060200280838360005b838110156104c75780820151818401526020810190506104ac565b50505050905001848103825285818151815260200191508051906020019060200280838360005b838110156105095780820151818401526020810190506104ee565b5050505090500198505050505050505050600060405180830381600087803b151561053357600080fd5b6102c65a03f1151561054457600080fd5b505050600183019250610346565b7f874b36e7ae1e54e2762bcea268c67619c92f7d45dab1a8cb7c098a9cb5f2e9b58a8a8334338d8d8d60405180806020018973ffffffffffffffffffffffffffffffffffffffff1673ffffffffffffffffffffffffffffffffffffffff1681526020018881526020018781526020018673ffffffffffffffffffffffffffffffffffffffff1673ffffffffffffffffffffffffffffffffffffffff1681526020018573ffffffffffffffffffffffffffffffffffffffff1673ffffffffffffffffffffffffffffffffffffffff168152602001806020018060200184810384528c818151815260200191508051906020019080838360005b8381101561066557808201518184015260208101905061064a565b50505050905090810190601f1680156106925780820380516001836020036101000a031916815260200191505b50848103835286818151815260200191508051906020019060200280838360005b838110156106ce5780820151818401526020810190506106b3565b50505050905001848103825285818151815260200191508051906020019060200280838360005b838110156107105780820151818401526020810190506106f5565b505050509050019b50505050505050505050505060405180910390a1505050505050505050505600a165627a7a7230582055cb60ee912cf13810ad296fb31832dd2e281264bf78e17d1844b97282803c580029",
  "source": "pragma solidity 0.4.18;\n\nimport \"../../../oracle/contracts/IUSDETHOracle.sol\";\n\n\ncontract IRecipient {\n    function receiveNotification(string _cid,\n    address _oracle,\n    address _buyer,\n    address[] _beneficiaries,\n    uint256[] _amounts) public payable;\n}\n\n\ncontract ETHUSDHandler {\n\n    function pay(string _cid,\n    address _oracle,\n    address _buyer, // this is for the case that someone else pays on your behalf\n    address[] _beneficiaries,\n    uint256[] _amounts,\n    address[] _notifiers) public payable {\n        require(_beneficiaries.length == _amounts.length);\n\n        if (msg.value == 0) {\n            require(_beneficiaries.length == 0);\n            require(_amounts.length == 0);\n        } else {\n            uint256 totaltoPay;\n            for (uint256 i = 0; i < _amounts.length; i += 1) {\n                totaltoPay += _amounts[i];\n            }\n            require(totaltoPay == msg.value);\n\n            for (i = 0; i < _beneficiaries.length; i += 1) {\n                _beneficiaries[i].transfer(_amounts[i]);\n            }\n        }\n\n        // if a transfer fails, should the whole tx fail?\n\n        IUSDETHOracle oracle = IUSDETHOracle(_oracle);\n        uint256 ethUSD = oracle.getUintPrice();\n        require(ethUSD != 0);\n\n        // notify any contracts about this payment\n        for (i = 0; i < _notifiers.length; i += 1) {\n            IRecipient(_notifiers[i]).receiveNotification(_cid,\n                _oracle,\n                _buyer,\n                _beneficiaries,\n                _amounts);\n        }\n\n        LogPayment(\n            _cid,\n            _oracle,\n            ethUSD,\n            msg.value,\n            msg.sender,\n            _buyer,\n            _beneficiaries,\n            _amounts)\n        ;\n    }\n\n    event LogPayment(string cid,\n    address oracle,\n    uint256 ethUSD,\n    uint256 value,\n    address issuer,\n    address buyer,\n    address[] beneficiaries,\n    uint256[] amounts);\n\n}\n",
  "sourcePath": "/Users/simondlr/code/ethereum/ujo-contracts/portal/handlers/contracts/ETHUSDHandler.sol",
  "compiler": {
    "name": "solc",
    "version": "0.4.18+commit.9cf6e910.Emscripten.clang"
  },
  "schemaVersion": "1.0.1",
  "updatedAt": "2018-02-16T11:20:18.477Z"
}