{
  "contractName": "ETHUSDHandler",
  "abi": [
    {
      "anonymous": false,
      "inputs": [
        {
          "indexed": false,
          "name": "cid",
          "type": "string"
        },
        {
          "indexed": false,
          "name": "oracle",
          "type": "address"
        },
        {
          "indexed": true,
          "name": "ethUSD",
          "type": "uint256"
        },
        {
          "indexed": true,
          "name": "value",
          "type": "uint256"
        },
        {
          "indexed": false,
          "name": "issuer",
          "type": "address"
        },
        {
          "indexed": true,
          "name": "buyer",
          "type": "address"
        },
        {
          "indexed": false,
          "name": "beneficiaries",
          "type": "address[]"
        },
        {
          "indexed": false,
          "name": "amounts",
          "type": "uint256[]"
        }
      ],
      "name": "LogPayment",
      "type": "event"
    },
    {
      "constant": false,
      "inputs": [
        {
          "name": "_cid",
          "type": "string"
        },
        {
          "name": "_oracle",
          "type": "address"
        },
        {
          "name": "_buyer",
          "type": "address"
        },
        {
          "name": "_beneficiaries",
          "type": "address[]"
        },
        {
          "name": "_amounts",
          "type": "uint256[]"
        },
        {
          "name": "_notifiers",
          "type": "address[]"
        }
      ],
      "name": "pay",
      "outputs": [],
      "payable": true,
      "stateMutability": "payable",
      "type": "function"
    }
  ],
  "bytecode": "0x608060405234801561001057600080fd5b50610762806100206000396000f300608060405260043610610041576000357c0100000000000000000000000000000000000000000000000000000000900463ffffffff1680636f49b98b14610046575b600080fd5b6101a9600480360381019080803590602001908201803590602001908080601f0160208091040260200160405190810160405280939291908181526020018383808284378201915050505050509192919290803573ffffffffffffffffffffffffffffffffffffffff169060200190929190803573ffffffffffffffffffffffffffffffffffffffff1690602001909291908035906020019082018035906020019080806020026020016040519081016040528093929190818152602001838360200280828437820191505050505050919291929080359060200190820180359060200190808060200260200160405190810160405280939291908181526020018383602002808284378201915050505050509192919290803590602001908201803590602001908080602002602001604051908101604052809392919081815260200183836020028082843782019150505050505091929192905050506101ab565b005b600080600080855187511415156101c157600080fd5b60003414156101ef57600087511415156101da57600080fd5b600086511415156101ea57600080fd5b6102c1565b600092505b855183101561022457858381518110151561020b57fe5b90602001906020020151840193506001830192506101f4565b348414151561023257600080fd5b600092505b86518310156102c057868381518110151561024e57fe5b9060200190602002015173ffffffffffffffffffffffffffffffffffffffff166108fc878581518110151561027f57fe5b906020019060200201519081150290604051600060405180830381858888f193505050501580156102b4573d6000803e3d6000fd5b50600183019250610237565b5b8891508173ffffffffffffffffffffffffffffffffffffffff166358836e9f6040518163ffffffff167c0100000000000000000000000000000000000000000000000000000000028152600401602060405180830381600087803b15801561032857600080fd5b505af115801561033c573d6000803e3d6000fd5b505050506040513d602081101561035257600080fd5b81019080805190602001909291905050509050600092505b845183101561057b57848381518110151561038157fe5b9060200190602002015173ffffffffffffffffffffffffffffffffffffffff16637dab14eb8b8b8b8b8b6040518663ffffffff167c010000000000000000000000000000000000000000000000000000000002815260040180806020018673ffffffffffffffffffffffffffffffffffffffff1673ffffffffffffffffffffffffffffffffffffffff1681526020018573ffffffffffffffffffffffffffffffffffffffff1673ffffffffffffffffffffffffffffffffffffffff1681526020018060200180602001848103845289818151815260200191508051906020019080838360005b83811015610482578082015181840152602081019050610467565b50505050905090810190601f1680156104af5780820380516001836020036101000a031916815260200191505b50848103835286818151815260200191508051906020019060200280838360005b838110156104eb5780820151818401526020810190506104d0565b50505050905001848103825285818151815260200191508051906020019060200280838360005b8381101561052d578082015181840152602081019050610512565b5050505090500198505050505050505050600060405180830381600087803b15801561055857600080fd5b505af115801561056c573d6000803e3d6000fd5b5050505060018301925061036a565b8773ffffffffffffffffffffffffffffffffffffffff1634827f874b36e7ae1e54e2762bcea268c67619c92f7d45dab1a8cb7c098a9cb5f2e9b58d8d338d8d60405180806020018673ffffffffffffffffffffffffffffffffffffffff1673ffffffffffffffffffffffffffffffffffffffff1681526020018573ffffffffffffffffffffffffffffffffffffffff1673ffffffffffffffffffffffffffffffffffffffff1681526020018060200180602001848103845289818151815260200191508051906020019080838360005b8381101561066657808201518184015260208101905061064b565b50505050905090810190601f1680156106935780820380516001836020036101000a031916815260200191505b50848103835286818151815260200191508051906020019060200280838360005b838110156106cf5780820151818401526020810190506106b4565b50505050905001848103825285818151815260200191508051906020019060200280838360005b838110156107115780820151818401526020810190506106f6565b505050509050019850505050505050505060405180910390a4505050505050505050505600a165627a7a7230582084815b44c68db35441c621e06254f691624860268465d9ce93b4d3222f57470a0029",
  "source": "pragma solidity ^0.4.21; //solhint-disable-line\nimport \"./IUSDETHOracle.sol\";\n\n\n// Interface for Recipient.\n// NOTE: Does not currently support ERC165 [for interface signature checking].\n// Future Handler Deployments Will Incorporate This.\ncontract IRecipient {\n    function receiveNotification(string _cid,\n    address _oracle,\n    address _buyer,\n    address[] _beneficiaries,\n    uint256[] _amounts) public payable;\n}\n\n\ncontract ETHUSDHandler {\n\n    function pay(string _cid,\n    address _oracle,\n    address _buyer, // this is for the case that someone else pays on your behalf\n    address[] _beneficiaries,\n    uint256[] _amounts,\n    address[] _notifiers) public payable {\n\n        // checks if the payment isn't egregiously malformed.\n        require(_beneficiaries.length == _amounts.length);\n\n        if (msg.value == 0) {\n            require(_beneficiaries.length == 0);\n            require(_amounts.length == 0);\n        } else {\n            uint256 totaltoPay;\n            for (uint256 i = 0; i < _amounts.length; i += 1) {\n                totaltoPay += _amounts[i];\n            }\n            require(totaltoPay == msg.value);\n\n            for (i = 0; i < _beneficiaries.length; i += 1) {\n                _beneficiaries[i].transfer(_amounts[i]);\n            }\n        }\n\n        IUSDETHOracle oracle = IUSDETHOracle(_oracle);\n        uint256 ethUSD = oracle.getUintPrice();\n\n        // notify any contracts about this payment\n        for (i = 0; i < _notifiers.length; i += 1) {\n            IRecipient(_notifiers[i]).receiveNotification(_cid,\n                _oracle,\n                _buyer,\n                _beneficiaries,\n                _amounts);\n        }\n\n        LogPayment(\n            _cid,\n            _oracle,\n            ethUSD,\n            msg.value,\n            msg.sender,\n            _buyer,\n            _beneficiaries,\n            _amounts)\n        ;\n    }\n\n    event LogPayment(string cid,\n    address oracle,\n    uint256 indexed ethUSD,\n    uint256 indexed value,\n    address issuer,\n    address indexed buyer,\n    address[] beneficiaries,\n    uint256[] amounts);\n\n}\n",
  "sourcePath": "/Users/simondlr/code/ethereum/contracts-handlers/contracts/ETHUSDHandler.sol",
  "compiler": {
    "name": "solc",
    "version": "0.4.23+commit.124ca40d.Emscripten.clang"
  },
  "schemaVersion": "2.0.0",
  "updatedAt": "2018-05-03T19:30:04.504Z"
}