{
  "contractName": "TestOracle",
  "abi": [
    {
      "constant": true,
      "inputs": [],
      "name": "getUintPrice",
      "outputs": [
        {
          "name": "",
          "type": "uint256"
        }
      ],
      "payable": false,
      "stateMutability": "view",
      "type": "function"
    },
    {
      "constant": false,
      "inputs": [
        {
          "name": "_price",
          "type": "uint256"
        }
      ],
      "name": "setPrice",
      "outputs": [],
      "payable": false,
      "stateMutability": "nonpayable",
      "type": "function"
    },
    {
      "constant": true,
      "inputs": [],
      "name": "price",
      "outputs": [
        {
          "name": "",
          "type": "uint256"
        }
      ],
      "payable": false,
      "stateMutability": "view",
      "type": "function"
    },
    {
      "constant": true,
      "inputs": [],
      "name": "lastUpdated",
      "outputs": [
        {
          "name": "",
          "type": "uint256"
        }
      ],
      "payable": false,
      "stateMutability": "view",
      "type": "function"
    },
    {
      "inputs": [],
      "payable": false,
      "stateMutability": "nonpayable",
      "type": "constructor"
    }
  ],
  "bytecode": "0x60606040526001600055341561001457600080fd5b426001819055506101578061002a6000396000f300606060405260043610610062576000357c0100000000000000000000000000000000000000000000000000000000900463ffffffff16806358836e9f1461006757806391b7f5ed14610090578063a035b1fe146100b3578063d0b06f5d146100dc575b600080fd5b341561007257600080fd5b61007a610105565b6040518082815260200191505060405180910390f35b341561009b57600080fd5b6100b1600480803590602001909190505061010e565b005b34156100be57600080fd5b6100c661011f565b6040518082815260200191505060405180910390f35b34156100e757600080fd5b6100ef610125565b6040518082815260200191505060405180910390f35b60008054905090565b426001819055508060008190555050565b60005481565b600154815600a165627a7a7230582023e7bff6bbbc0b5d7aaf4a3106e386cd595d996549263e02888fc16198a397410029",
  "source": "/*\nUsed in testing to see if the Handler properly fetches it.\nRelies on getPrice() to return a string.\n*/\npragma solidity 0.4.18;\n\n\ncontract TestOracle {\n    uint public price = 1; // 1 eth = 1 usd for simplicity of testing.\n    uint256 public lastUpdated;\n\n    function TestOracle() public {\n        lastUpdated = now; // solhint-disable-line not-rely-on-time\n    }\n\n    function getUintPrice() public view returns (uint) {\n        return price;\n    }\n\n    function setPrice(uint _price) public {\n        lastUpdated = now; // solhint-disable-line not-rely-on-time\n        price = _price;\n    }\n}\n",
  "sourcePath": "/Users/simondlr/code/ethereum/ujo-contracts/portal/handlers/contracts/TestOracle.sol",
  "compiler": {
    "name": "solc",
    "version": "0.4.18+commit.9cf6e910.Emscripten.clang"
  },
  "schemaVersion": "1.0.1",
  "updatedAt": "2018-02-15T11:45:42.522Z"
}