{
  "contractName": "TestNotification",
  "abi": [
    {
      "constant": true,
      "inputs": [],
      "name": "counter",
      "outputs": [
        {
          "name": "",
          "type": "uint256"
        }
      ],
      "payable": false,
      "stateMutability": "view",
      "type": "function"
    },
    {
      "constant": true,
      "inputs": [
        {
          "name": "",
          "type": "uint256"
        }
      ],
      "name": "additionalData",
      "outputs": [
        {
          "name": "cid",
          "type": "string"
        },
        {
          "name": "oracle",
          "type": "address"
        },
        {
          "name": "minted",
          "type": "uint256"
        }
      ],
      "payable": false,
      "stateMutability": "view",
      "type": "function"
    },
    {
      "constant": false,
      "inputs": [
        {
          "name": "_cid",
          "type": "string"
        },
        {
          "name": "_oracle",
          "type": "address"
        },
        {
          "name": "_buyer",
          "type": "address"
        },
        {
          "name": "_beneficiaries",
          "type": "address[]"
        },
        {
          "name": "_amounts",
          "type": "uint256[]"
        }
      ],
      "name": "receiveNotification",
      "outputs": [],
      "payable": false,
      "stateMutability": "nonpayable",
      "type": "function"
    },
    {
      "constant": true,
      "inputs": [
        {
          "name": "_tokenId",
          "type": "uint256"
        }
      ],
      "name": "getCid",
      "outputs": [
        {
          "name": "",
          "type": "string"
        }
      ],
      "payable": false,
      "stateMutability": "view",
      "type": "function"
    },
    {
      "constant": true,
      "inputs": [
        {
          "name": "_tokenId",
          "type": "uint256"
        }
      ],
      "name": "getBeneficiaries",
      "outputs": [
        {
          "name": "",
          "type": "address[]"
        }
      ],
      "payable": false,
      "stateMutability": "view",
      "type": "function"
    },
    {
      "constant": true,
      "inputs": [
        {
          "name": "_tokenId",
          "type": "uint256"
        }
      ],
      "name": "getAmounts",
      "outputs": [
        {
          "name": "",
          "type": "uint256[]"
        }
      ],
      "payable": false,
      "stateMutability": "view",
      "type": "function"
    },
    {
      "constant": true,
      "inputs": [
        {
          "name": "_tokenId",
          "type": "uint256"
        }
      ],
      "name": "getOracle",
      "outputs": [
        {
          "name": "",
          "type": "address"
        }
      ],
      "payable": false,
      "stateMutability": "view",
      "type": "function"
    },
    {
      "constant": true,
      "inputs": [
        {
          "name": "_tokenId",
          "type": "uint256"
        }
      ],
      "name": "getMinted",
      "outputs": [
        {
          "name": "",
          "type": "uint256"
        }
      ],
      "payable": false,
      "stateMutability": "view",
      "type": "function"
    }
  ],
  "bytecode": "0x6080604052600060015534801561001557600080fd5b50610ba0806100256000396000f30060806040526004361061008e576000357c0100000000000000000000000000000000000000000000000000000000900463ffffffff16806310a9de60146100935780631a9e379f146101005780633beaa6ab1461014157806359f7cf50146101e757806361bc221a14610269578063783804d9146102945780637dab14eb14610316578063c7261ad314610445575b600080fd5b34801561009f57600080fd5b506100be60048036038101908080359060200190929190505050610525565b604051808273ffffffffffffffffffffffffffffffffffffffff1673ffffffffffffffffffffffffffffffffffffffff16815260200191505060405180910390f35b34801561010c57600080fd5b5061012b60048036038101908080359060200190929190505050610564565b6040518082815260200191505060405180910390f35b34801561014d57600080fd5b5061016c60048036038101908080359060200190929190505050610583565b6040518080602001828103825283818151815260200191508051906020019080838360005b838110156101ac578082015181840152602081019050610191565b50505050905090810190601f1680156101d95780820380516001836020036101000a031916815260200191505b509250505060405180910390f35b3480156101f357600080fd5b506102126004803603810190808035906020019092919050505061063a565b6040518080602001828103825283818151815260200191508051906020019060200280838360005b8381101561025557808201518184015260208101905061023a565b505050509050019250505060405180910390f35b34801561027557600080fd5b5061027e6106a7565b6040518082815260200191505060405180910390f35b3480156102a057600080fd5b506102bf600480360381019080803590602001909291905050506106ad565b6040518080602001828103825283818151815260200191508051906020019060200280838360005b838110156103025780820151818401526020810190506102e7565b505050509050019250505060405180910390f35b34801561032257600080fd5b50610443600480360381019080803590602001908201803590602001908080601f0160208091040260200160405190810160405280939291908181526020018383808284378201915050505050509192919290803573ffffffffffffffffffffffffffffffffffffffff169060200190929190803573ffffffffffffffffffffffffffffffffffffffff1690602001909291908035906020019082018035906020019080806020026020016040519081016040528093929190818152602001838360200280828437820191505050505050919291929080359060200190820180359060200190808060200260200160405190810160405280939291908181526020018383602002808284378201915050505050509192919290505050610750565b005b34801561045157600080fd5b506104706004803603810190808035906020019092919050505061088d565b60405180806020018473ffffffffffffffffffffffffffffffffffffffff1673ffffffffffffffffffffffffffffffffffffffff168152602001838152602001828103825285818151815260200191508051906020019080838360005b838110156104e85780820151818401526020810190506104cd565b50505050905090810190601f1680156105155780820380516001836020036101000a031916815260200191505b5094505050505060405180910390f35b600080600083815260200190815260200160002060030160009054906101000a900473ffffffffffffffffffffffffffffffffffffffff169050919050565b6000806000838152602001908152602001600020600401549050919050565b60606000808381526020019081526020016000206000018054600181600116156101000203166002900480601f01602080910402602001604051908101604052809291908181526020018280546001816001161561010002031660029004801561062e5780601f106106035761010080835404028352916020019161062e565b820191906000526020600020905b81548152906001019060200180831161061157829003601f168201915b50505050509050919050565b606060008083815260200190815260200160002060020180548060200260200160405190810160405280929190818152602001828054801561069b57602002820191906000526020600020905b815481526020019060010190808311610687575b50505050509050919050565b60015481565b606060008083815260200190815260200160002060010180548060200260200160405190810160405280929190818152602001828054801561074457602002820191906000526020600020905b8160009054906101000a900473ffffffffffffffffffffffffffffffffffffffff1673ffffffffffffffffffffffffffffffffffffffff16815260200190600101908083116106fa575b50505050509050919050565b61075861096f565b85816000018190525082816020018190525081816040018190525084816060019073ffffffffffffffffffffffffffffffffffffffff16908173ffffffffffffffffffffffffffffffffffffffff16815250504281608001818152505080600080600154815260200190815260200160002060008201518160000190805190602001906107e69291906109b5565b506020820151816001019080519060200190610803929190610a35565b506040820151816002019080519060200190610820929190610abf565b5060608201518160030160006101000a81548173ffffffffffffffffffffffffffffffffffffffff021916908373ffffffffffffffffffffffffffffffffffffffff1602179055506080820151816004015590505060018060008282540192505081905550505050505050565b6000602052806000526040600020600091509050806000018054600181600116156101000203166002900480601f0160208091040260200160405190810160405280929190818152602001828054600181600116156101000203166002900480156109395780601f1061090e57610100808354040283529160200191610939565b820191906000526020600020905b81548152906001019060200180831161091c57829003601f168201915b5050505050908060030160009054906101000a900473ffffffffffffffffffffffffffffffffffffffff16908060040154905083565b60a060405190810160405280606081526020016060815260200160608152602001600073ffffffffffffffffffffffffffffffffffffffff168152602001600081525090565b828054600181600116156101000203166002900490600052602060002090601f016020900481019282601f106109f657805160ff1916838001178555610a24565b82800160010185558215610a24579182015b82811115610a23578251825591602001919060010190610a08565b5b509050610a319190610b0c565b5090565b828054828255906000526020600020908101928215610aae579160200282015b82811115610aad5782518260006101000a81548173ffffffffffffffffffffffffffffffffffffffff021916908373ffffffffffffffffffffffffffffffffffffffff16021790555091602001919060010190610a55565b5b509050610abb9190610b31565b5090565b828054828255906000526020600020908101928215610afb579160200282015b82811115610afa578251825591602001919060010190610adf565b5b509050610b089190610b0c565b5090565b610b2e91905b80821115610b2a576000816000905550600101610b12565b5090565b90565b610b7191905b80821115610b6d57600081816101000a81549073ffffffffffffffffffffffffffffffffffffffff021916905550600101610b37565b5090565b905600a165627a7a72305820664dd22d556b1fa55f6c64e4095f51d83258330938d0397e6ed80a971d59855d0029",
  "source": "pragma solidity ^0.4.21; //solhint-disable-line\n\ncontract TestNotification {\n\n    mapping (uint256 => AdditionalTokenData) public additionalData;\n    uint256 public counter = 0;\n\n    struct AdditionalTokenData {\n        string cid;\n        address[] beneficiaries;\n        uint256[] amounts;\n        address oracle;\n        uint256 minted;\n    }\n\n    function receiveNotification(string _cid,\n    address _oracle,\n    address _buyer,\n    address[] _beneficiaries,\n    uint256[] _amounts) public {\n        AdditionalTokenData memory aData;\n        aData.cid = _cid;\n        aData.beneficiaries = _beneficiaries;\n        aData.amounts = _amounts;\n        aData.oracle = _oracle;\n        aData.minted = now; //solhint-disable-line not-rely-on-time\n        additionalData[counter] = aData;\n        counter += 1; // every new token gets a new ID\n    }\n\n    function getCid(uint256 _tokenId) public view returns (string) {\n        return additionalData[_tokenId].cid;\n    }\n\n    function getBeneficiaries(uint256 _tokenId) public view returns (address[]) {\n        return additionalData[_tokenId].beneficiaries;\n    }\n\n    function getAmounts(uint256 _tokenId) public view returns (uint256[]) {\n        return additionalData[_tokenId].amounts;\n    }\n\n    function getOracle(uint256 _tokenId) public view returns(address) {\n        return additionalData[_tokenId].oracle;\n    }\n\n    function getMinted(uint256 _tokenId) public view returns(uint256) {\n        return additionalData[_tokenId].minted;\n    }\n}\n",
  "sourcePath": "/Users/simondlr/code/ethereum/contracts-handlers/contracts/TestNotification.sol",
  "compiler": {
    "name": "solc",
    "version": "0.4.23+commit.124ca40d.Emscripten.clang"
  },
  "schemaVersion": "2.0.0",
  "updatedAt": "2018-05-03T19:26:41.815Z"
}